{
  "address": "0x5ae5F64d778E88cdb49877e250a849A9e4702eD1",
  "abi": [
    {
      "inputs": [
        {
          "internalType": "uint256",
          "name": "_lockTime",
          "type": "uint256"
        },
        {
          "internalType": "address",
          "name": "dataFeedAddr",
          "type": "address"
        }
      ],
      "stateMutability": "nonpayable",
      "type": "constructor"
    },
    {
      "inputs": [],
      "name": "dataFeed",
      "outputs": [
        {
          "internalType": "contract AggregatorV3Interface",
          "name": "",
          "type": "address"
        }
      ],
      "stateMutability": "view",
      "type": "function"
    },
    {
      "inputs": [],
      "name": "fund",
      "outputs": [],
      "stateMutability": "payable",
      "type": "function"
    },
    {
      "inputs": [
        {
          "internalType": "address",
          "name": "",
          "type": "address"
        }
      ],
      "name": "fundersToAmount",
      "outputs": [
        {
          "internalType": "uint256",
          "name": "",
          "type": "uint256"
        }
      ],
      "stateMutability": "view",
      "type": "function"
    },
    {
      "inputs": [],
      "name": "getChainlinkDataFeedLatestAnswer",
      "outputs": [
        {
          "internalType": "int256",
          "name": "",
          "type": "int256"
        }
      ],
      "stateMutability": "view",
      "type": "function"
    },
    {
      "inputs": [],
      "name": "getFund",
      "outputs": [],
      "stateMutability": "nonpayable",
      "type": "function"
    },
    {
      "inputs": [],
      "name": "getFundSuccess",
      "outputs": [
        {
          "internalType": "bool",
          "name": "",
          "type": "bool"
        }
      ],
      "stateMutability": "view",
      "type": "function"
    },
    {
      "inputs": [],
      "name": "owner",
      "outputs": [
        {
          "internalType": "address",
          "name": "",
          "type": "address"
        }
      ],
      "stateMutability": "view",
      "type": "function"
    },
    {
      "inputs": [],
      "name": "refund",
      "outputs": [],
      "stateMutability": "nonpayable",
      "type": "function"
    },
    {
      "inputs": [
        {
          "internalType": "address",
          "name": "_erc20Addr",
          "type": "address"
        }
      ],
      "name": "setErc20addr",
      "outputs": [],
      "stateMutability": "nonpayable",
      "type": "function"
    },
    {
      "inputs": [
        {
          "internalType": "address",
          "name": "funder",
          "type": "address"
        },
        {
          "internalType": "uint256",
          "name": "amount",
          "type": "uint256"
        }
      ],
      "name": "setFundersToAmount",
      "outputs": [],
      "stateMutability": "nonpayable",
      "type": "function"
    },
    {
      "inputs": [
        {
          "internalType": "address",
          "name": "newOwner",
          "type": "address"
        }
      ],
      "name": "transferOwnership",
      "outputs": [],
      "stateMutability": "nonpayable",
      "type": "function"
    }
  ],
  "transactionHash": "0x7db842ca99fed7b58f25b5e866bb3bd655e7ec62bf9f6dc7917e5a6f9829dd52",
  "args": [
    180,
    "0x694AA1769357215DE4FAC081bf1f309aDC325306"
  ],
  "numDeployments": 1,
  "solcInputHash": "f1c33ccd4b26e56fec47e6de2b1a4cd5",
  "bytecode": "0x60806040526000600560146101000a81548160ff02191690831515021790555034801561002b57600080fd5b5060405161163c38038061163c833981810160405281019061004d919061017d565b80600160006101000a81548173ffffffffffffffffffffffffffffffffffffffff021916908373ffffffffffffffffffffffffffffffffffffffff16021790555033600260006101000a81548173ffffffffffffffffffffffffffffffffffffffff021916908373ffffffffffffffffffffffffffffffffffffffff160217905550426003819055508160048190555050506101bd565b600080fd5b6000819050919050565b6100fc816100e9565b811461010757600080fd5b50565b600081519050610119816100f3565b92915050565b600073ffffffffffffffffffffffffffffffffffffffff82169050919050565b600061014a8261011f565b9050919050565b61015a8161013f565b811461016557600080fd5b50565b60008151905061017781610151565b92915050565b60008060408385031215610194576101936100e4565b5b60006101a28582860161010a565b92505060206101b385828601610168565b9150509250929050565b611470806101cc6000396000f3fe60806040526004361061009c5760003560e01c8063b130b40511610064578063b130b40514610162578063b23c30f61461018b578063b60d4288146101b4578063bea4dfb5146101be578063da4658e0146101e9578063f2fde38b146102145761009c565b8063590e1ae3146100a15780638da5cb5b146100b85780638edd6eb6146100e35780639e42ff90146100fa5780639f883a0514610125575b600080fd5b3480156100ad57600080fd5b506100b661023d565b005b3480156100c457600080fd5b506100cd610495565b6040516100da9190610bcb565b60405180910390f35b3480156100ef57600080fd5b506100f86104bb565b005b34801561010657600080fd5b5061010f610700565b60405161011c9190610c45565b60405180910390f35b34801561013157600080fd5b5061014c60048036038101906101479190610c91565b610726565b6040516101599190610cd7565b60405180910390f35b34801561016e57600080fd5b5061018960048036038101906101849190610c91565b61073e565b005b34801561019757600080fd5b506101b260048036038101906101ad9190610d1e565b610812565b005b6101bc6108e9565b005b3480156101ca57600080fd5b506101d36109d2565b6040516101e09190610d77565b60405180910390f35b3480156101f557600080fd5b506101fe610a73565b60405161020b9190610dad565b60405180910390f35b34801561022057600080fd5b5061023b60048036038101906102369190610c91565b610a86565b005b60045460035461024d9190610df7565b42101561028f576040517f08c379a000000000000000000000000000000000000000000000000000000000815260040161028690610e88565b60405180910390fd5b678ac7230489e800006102a147610b5a565b106102e1576040517f08c379a00000000000000000000000000000000000000000000000000000000081526004016102d890610ef4565b60405180910390fd5b60008060003373ffffffffffffffffffffffffffffffffffffffff1673ffffffffffffffffffffffffffffffffffffffff1681526020019081526020016000205403610362576040517f08c379a000000000000000000000000000000000000000000000000000000000815260040161035990610f60565b60405180910390fd5b60003373ffffffffffffffffffffffffffffffffffffffff166000803373ffffffffffffffffffffffffffffffffffffffff1673ffffffffffffffffffffffffffffffffffffffff168152602001908152602001600020546040516103c690610fb1565b60006040518083038185875af1925050503d8060008114610403576040519150601f19603f3d011682016040523d82523d6000602084013e610408565b606091505b5050809150508061044e576040517f08c379a000000000000000000000000000000000000000000000000000000000815260040161044590611012565b60405180910390fd5b60008060003373ffffffffffffffffffffffffffffffffffffffff1673ffffffffffffffffffffffffffffffffffffffff1681526020019081526020016000208190555050565b600260009054906101000a900473ffffffffffffffffffffffffffffffffffffffff1681565b6004546003546104cb9190610df7565b42101561050d576040517f08c379a000000000000000000000000000000000000000000000000000000000815260040161050490610e88565b60405180910390fd5b600260009054906101000a900473ffffffffffffffffffffffffffffffffffffffff1673ffffffffffffffffffffffffffffffffffffffff163373ffffffffffffffffffffffffffffffffffffffff161461059d576040517f08c379a0000000000000000000000000000000000000000000000000000000008152600401610594906110a4565b60405180910390fd5b678ac7230489e800006105af47610b5a565b10156105f0576040517f08c379a00000000000000000000000000000000000000000000000000000000081526004016105e790611110565b60405180910390fd5b60003373ffffffffffffffffffffffffffffffffffffffff164760405161061690610fb1565b60006040518083038185875af1925050503d8060008114610653576040519150601f19603f3d011682016040523d82523d6000602084013e610658565b606091505b5050809150508061069e576040517f08c379a000000000000000000000000000000000000000000000000000000000815260040161069590611012565b60405180910390fd5b60008060003373ffffffffffffffffffffffffffffffffffffffff1673ffffffffffffffffffffffffffffffffffffffff168152602001908152602001600020819055506001600560146101000a81548160ff02191690831515021790555050565b600160009054906101000a900473ffffffffffffffffffffffffffffffffffffffff1681565b60006020528060005260406000206000915090505481565b600260009054906101000a900473ffffffffffffffffffffffffffffffffffffffff1673ffffffffffffffffffffffffffffffffffffffff163373ffffffffffffffffffffffffffffffffffffffff16146107ce576040517f08c379a00000000000000000000000000000000000000000000000000000000081526004016107c5906110a4565b60405180910390fd5b80600560006101000a81548173ffffffffffffffffffffffffffffffffffffffff021916908373ffffffffffffffffffffffffffffffffffffffff16021790555050565b600560009054906101000a900473ffffffffffffffffffffffffffffffffffffffff1673ffffffffffffffffffffffffffffffffffffffff163373ffffffffffffffffffffffffffffffffffffffff16146108a2576040517f08c379a0000000000000000000000000000000000000000000000000000000008152600401610899906111a2565b60405180910390fd5b806000808473ffffffffffffffffffffffffffffffffffffffff1673ffffffffffffffffffffffffffffffffffffffff168152602001908152602001600020819055505050565b670de0b6b3a76400006108fb34610b5a565b101561093c576040517f08c379a00000000000000000000000000000000000000000000000000000000081526004016109339061120e565b60405180910390fd5b60045460035461094c9190610df7565b421061098d576040517f08c379a00000000000000000000000000000000000000000000000000000000081526004016109849061127a565b60405180910390fd5b346000803373ffffffffffffffffffffffffffffffffffffffff1673ffffffffffffffffffffffffffffffffffffffff16815260200190815260200160002081905550565b600080600160009054906101000a900473ffffffffffffffffffffffffffffffffffffffff1673ffffffffffffffffffffffffffffffffffffffff1663feaf968c6040518163ffffffff1660e01b815260040160a060405180830381865afa158015610a42573d6000803e3d6000fd5b505050506040513d601f19601f82011682018060405250810190610a66919061131d565b5050509150508091505090565b600560149054906101000a900460ff1681565b600260009054906101000a900473ffffffffffffffffffffffffffffffffffffffff1673ffffffffffffffffffffffffffffffffffffffff163373ffffffffffffffffffffffffffffffffffffffff1614610b16576040517f08c379a0000000000000000000000000000000000000000000000000000000008152600401610b0d906110a4565b60405180910390fd5b80600260006101000a81548173ffffffffffffffffffffffffffffffffffffffff021916908373ffffffffffffffffffffffffffffffffffffffff16021790555050565b600080610b656109d2565b90506305f5e10081610b7791906113c7565b83610b8291906113f8565b915050919050565b600073ffffffffffffffffffffffffffffffffffffffff82169050919050565b6000610bb582610b8a565b9050919050565b610bc581610baa565b82525050565b6000602082019050610be06000830184610bbc565b92915050565b6000819050919050565b6000610c0b610c06610c0184610b8a565b610be6565b610b8a565b9050919050565b6000610c1d82610bf0565b9050919050565b6000610c2f82610c12565b9050919050565b610c3f81610c24565b82525050565b6000602082019050610c5a6000830184610c36565b92915050565b600080fd5b610c6e81610baa565b8114610c7957600080fd5b50565b600081359050610c8b81610c65565b92915050565b600060208284031215610ca757610ca6610c60565b5b6000610cb584828501610c7c565b91505092915050565b6000819050919050565b610cd181610cbe565b82525050565b6000602082019050610cec6000830184610cc8565b92915050565b610cfb81610cbe565b8114610d0657600080fd5b50565b600081359050610d1881610cf2565b92915050565b60008060408385031215610d3557610d34610c60565b5b6000610d4385828601610c7c565b9250506020610d5485828601610d09565b9150509250929050565b6000819050919050565b610d7181610d5e565b82525050565b6000602082019050610d8c6000830184610d68565b92915050565b60008115159050919050565b610da781610d92565b82525050565b6000602082019050610dc26000830184610d9e565b92915050565b7f4e487b7100000000000000000000000000000000000000000000000000000000600052601160045260246000fd5b6000610e0282610cbe565b9150610e0d83610cbe565b9250828201905080821115610e2557610e24610dc8565b5b92915050565b600082825260208201905092915050565b7f57696e646f77206973206e6f7420636c6f736564000000000000000000000000600082015250565b6000610e72601483610e2b565b9150610e7d82610e3c565b602082019050919050565b60006020820190508181036000830152610ea181610e65565b9050919050565b7f5461726765742069732072656163686564000000000000000000000000000000600082015250565b6000610ede601183610e2b565b9150610ee982610ea8565b602082019050919050565b60006020820190508181036000830152610f0d81610ed1565b9050919050565b7f7468657265206973206e6f20666f756e6420666f7220796f7500000000000000600082015250565b6000610f4a601983610e2b565b9150610f5582610f14565b602082019050919050565b60006020820190508181036000830152610f7981610f3d565b9050919050565b600081905092915050565b50565b6000610f9b600083610f80565b9150610fa682610f8b565b600082019050919050565b6000610fbc82610f8e565b9150819050919050565b7f7472616e73666572207472616e73616374696f6e206973206661696c65640000600082015250565b6000610ffc601e83610e2b565b915061100782610fc6565b602082019050919050565b6000602082019050818103600083015261102b81610fef565b9050919050565b7f746869732066756e6374696f6e2063616e206f6e6c792062652063616c6c656460008201527f206279206f776e65720000000000000000000000000000000000000000000000602082015250565b600061108e602983610e2b565b915061109982611032565b604082019050919050565b600060208201905081810360008301526110bd81611081565b9050919050565b7f546172676574206973206e6f7420726561636865640000000000000000000000600082015250565b60006110fa601583610e2b565b9150611105826110c4565b602082019050919050565b60006020820190508181036000830152611129816110ed565b9050919050565b7f596f7520646f206e6f742068617665207065726d697373696f6e20746f20636160008201527f6c6c20746869732066756e6374696f6e00000000000000000000000000000000602082015250565b600061118c603083610e2b565b915061119782611130565b604082019050919050565b600060208201905081810360008301526111bb8161117f565b9050919050565b7f53656e64206d6f72652045544800000000000000000000000000000000000000600082015250565b60006111f8600d83610e2b565b9150611203826111c2565b602082019050919050565b60006020820190508181036000830152611227816111eb565b9050919050565b7f57696e646f7720697320636c6f73656400000000000000000000000000000000600082015250565b6000611264601083610e2b565b915061126f8261122e565b602082019050919050565b6000602082019050818103600083015261129381611257565b9050919050565b600069ffffffffffffffffffff82169050919050565b6112b98161129a565b81146112c457600080fd5b50565b6000815190506112d6816112b0565b92915050565b6112e581610d5e565b81146112f057600080fd5b50565b600081519050611302816112dc565b92915050565b60008151905061131781610cf2565b92915050565b600080600080600060a0868803121561133957611338610c60565b5b6000611347888289016112c7565b9550506020611358888289016112f3565b945050604061136988828901611308565b935050606061137a88828901611308565b925050608061138b888289016112c7565b9150509295509295909350565b7f4e487b7100000000000000000000000000000000000000000000000000000000600052601260045260246000fd5b60006113d282610cbe565b91506113dd83610cbe565b9250826113ed576113ec611398565b5b828204905092915050565b600061140382610cbe565b915061140e83610cbe565b925082820261141c81610cbe565b9150828204841483151761143357611432610dc8565b5b509291505056fea26469706673582212204bb37c52a9490fbbbe5fad4b01134f2b638eafd1b1a1917f833d408b6758b82a64736f6c634300081c0033",
  "devdoc": {
    "kind": "dev",
    "methods": {},
    "version": 1
  },
  "userdoc": {
    "kind": "user",
    "methods": {},
    "version": 1
  },
  "storageLayout": {
    "storage": [
      {
        "astId": 53,
        "contract": "contracts/FundMe.sol:FundMe",
        "label": "fundersToAmount",
        "offset": 0,
        "slot": "0",
        "type": "t_mapping(t_address,t_uint256)"
      },
      {
        "astId": 70,
        "contract": "contracts/FundMe.sol:FundMe",
        "label": "dataFeed",
        "offset": 0,
        "slot": "1",
        "type": "t_contract(AggregatorV3Interface)45"
      },
      {
        "astId": 72,
        "contract": "contracts/FundMe.sol:FundMe",
        "label": "owner",
        "offset": 0,
        "slot": "2",
        "type": "t_address"
      },
      {
        "astId": 74,
        "contract": "contracts/FundMe.sol:FundMe",
        "label": "deploymentTimestamp",
        "offset": 0,
        "slot": "3",
        "type": "t_uint256"
      },
      {
        "astId": 76,
        "contract": "contracts/FundMe.sol:FundMe",
        "label": "lockTime",
        "offset": 0,
        "slot": "4",
        "type": "t_uint256"
      },
      {
        "astId": 78,
        "contract": "contracts/FundMe.sol:FundMe",
        "label": "erc20Addr",
        "offset": 0,
        "slot": "5",
        "type": "t_address"
      },
      {
        "astId": 81,
        "contract": "contracts/FundMe.sol:FundMe",
        "label": "getFundSuccess",
        "offset": 20,
        "slot": "5",
        "type": "t_bool"
      }
    ],
    "types": {
      "t_address": {
        "encoding": "inplace",
        "label": "address",
        "numberOfBytes": "20"
      },
      "t_bool": {
        "encoding": "inplace",
        "label": "bool",
        "numberOfBytes": "1"
      },
      "t_contract(AggregatorV3Interface)45": {
        "encoding": "inplace",
        "label": "contract AggregatorV3Interface",
        "numberOfBytes": "20"
      },
      "t_mapping(t_address,t_uint256)": {
        "encoding": "mapping",
        "key": "t_address",
        "label": "mapping(address => uint256)",
        "numberOfBytes": "32",
        "value": "t_uint256"
      },
      "t_uint256": {
        "encoding": "inplace",
        "label": "uint256",
        "numberOfBytes": "32"
      }
    }
  }
}